:1000000009C016C015C014C013C012C029C010C04A
:100010000FC00EC011241FBECFE9CDBF10E0A0E677
:10002000B0E001C01D92A836B107E1F73ED072C022
:10003000E7CF8FB7F894209164003091650040912C
:100040006600509167008FBFB901CA01089582E030
:100050008FBD83E083BF84E089BF86E986BF0895B2
:100060001F920F920FB60F9211248F939F93AF930D
:10007000BF938091640090916500A0916600B0915B
:1000800067000196A11DB11D8093640090936500E7
:10009000A0936600B0936700BF91AF919F918F913D
:1000A0000F900FBE0F901F901895EF92FF920F9335
:1000B0001F9381E087BB18BA82E08FBD83E083BFC6
:1000C00084E089BF86E986BF7894E0906000F09074
:1000D0006100009162001091630061E08FB7F894B5
:1000E0002091640030916500409166005091670056
:1000F0008FBFDA01C9018E199F09A00BB10B885E71
:100100009340A040B04050F388B3862788BB790164
:080110008A01E4CFF894FFCF4F
:00000001FF
